{
  "_format": "hh-sol-artifact-1",
  "contractName": "CashierDesk",
  "sourceName": "contracts/CashierDesk.sol",
  "abi": [
    {
      "inputs": [],
      "stateMutability": "nonpayable",
      "type": "constructor"
    },
    {
      "anonymous": false,
      "inputs": [
        {
          "indexed": true,
          "internalType": "address",
          "name": "previousOwner",
          "type": "address"
        },
        {
          "indexed": true,
          "internalType": "address",
          "name": "newOwner",
          "type": "address"
        }
      ],
      "name": "OwnershipTransferred",
      "type": "event"
    },
    {
      "inputs": [],
      "name": "UINT_00_P_1",
      "outputs": [
        {
          "internalType": "uint256",
          "name": "",
          "type": "uint256"
        }
      ],
      "stateMutability": "view",
      "type": "function"
    },
    {
      "inputs": [],
      "name": "UINT_0_P_1",
      "outputs": [
        {
          "internalType": "uint256",
          "name": "",
          "type": "uint256"
        }
      ],
      "stateMutability": "view",
      "type": "function"
    },
    {
      "inputs": [],
      "name": "UINT_1",
      "outputs": [
        {
          "internalType": "uint256",
          "name": "",
          "type": "uint256"
        }
      ],
      "stateMutability": "view",
      "type": "function"
    },
    {
      "inputs": [],
      "name": "getCashierTokenAddress",
      "outputs": [
        {
          "internalType": "address",
          "name": "",
          "type": "address"
        }
      ],
      "stateMutability": "view",
      "type": "function"
    },
    {
      "inputs": [],
      "name": "owner",
      "outputs": [
        {
          "internalType": "address",
          "name": "",
          "type": "address"
        }
      ],
      "stateMutability": "view",
      "type": "function"
    },
    {
      "inputs": [
        {
          "internalType": "address",
          "name": "sender",
          "type": "address"
        },
        {
          "internalType": "uint256",
          "name": "amount",
          "type": "uint256"
        }
      ],
      "name": "receiveUSDT",
      "outputs": [
        {
          "internalType": "bool",
          "name": "",
          "type": "bool"
        }
      ],
      "stateMutability": "nonpayable",
      "type": "function"
    },
    {
      "inputs": [],
      "name": "renounceOwnership",
      "outputs": [],
      "stateMutability": "nonpayable",
      "type": "function"
    },
    {
      "inputs": [
        {
          "internalType": "address",
          "name": "cashierTokenAddress",
          "type": "address"
        }
      ],
      "name": "setCashierTokenAddress",
      "outputs": [],
      "stateMutability": "nonpayable",
      "type": "function"
    },
    {
      "inputs": [
        {
          "internalType": "address",
          "name": "newOwner",
          "type": "address"
        }
      ],
      "name": "transferOwnership",
      "outputs": [],
      "stateMutability": "nonpayable",
      "type": "function"
    }
  ],
  "bytecode": "0x6080604052670de0b6b3a764000060025567016345785d8a0000600355662386f26fc1000060045534801561003357600080fd5b5060006100446100e760201b60201c565b9050806000806101000a81548173ffffffffffffffffffffffffffffffffffffffff021916908373ffffffffffffffffffffffffffffffffffffffff1602179055508073ffffffffffffffffffffffffffffffffffffffff16600073ffffffffffffffffffffffffffffffffffffffff167f8be0079c531659141344cd1fd0a4f28419497f9722a3daafe3b4186f6b6457e060405160405180910390a3506100ef565b600033905090565b610c3b806100fe6000396000f3fe608060405234801561001057600080fd5b50600436106100935760003560e01c80637bf6a18e116100665780637bf6a18e1461010e5780638824a36b1461012c5780638da5cb5b1461014a578063b18be9b614610168578063f2fde38b1461018457610093565b80630db62ae41461009857806364ecbecc146100c85780636f6a8f1e146100e6578063715018a614610104575b600080fd5b6100b260048036038101906100ad9190610812565b6101a0565b6040516100bf919061086d565b60405180910390f35b6100d06102b4565b6040516100dd9190610897565b60405180910390f35b6100ee6102ba565b6040516100fb9190610897565b60405180910390f35b61010c6102c0565b005b610116610413565b6040516101239190610897565b60405180910390f35b610134610419565b60405161014191906108c1565b60405180910390f35b610152610443565b60405161015f91906108c1565b60405180910390f35b610182600480360381019061017d91906108dc565b61046c565b005b61019e600480360381019061019991906108dc565b610545565b005b600080600160009054906101000a900473ffffffffffffffffffffffffffffffffffffffff1690508073ffffffffffffffffffffffffffffffffffffffff166323b872dd856101ed610443565b866040518463ffffffff1660e01b815260040161020c93929190610909565b6020604051808303816000875af115801561022b573d6000803e3d6000fd5b505050506040513d601f19601f8201168201806040525081019061024f919061096c565b61028e576040517f08c379a0000000000000000000000000000000000000000000000000000000008152600401610285906109f6565b60405180910390fd5b6102a3836005546105e690919063ffffffff16565b600581905550600191505092915050565b60025481565b60035481565b6102c8610644565b73ffffffffffffffffffffffffffffffffffffffff1660008054906101000a900473ffffffffffffffffffffffffffffffffffffffff1673ffffffffffffffffffffffffffffffffffffffff1614610355576040517f08c379a000000000000000000000000000000000000000000000000000000000815260040161034c90610a62565b60405180910390fd5b600073ffffffffffffffffffffffffffffffffffffffff1660008054906101000a900473ffffffffffffffffffffffffffffffffffffffff1673ffffffffffffffffffffffffffffffffffffffff167f8be0079c531659141344cd1fd0a4f28419497f9722a3daafe3b4186f6b6457e060405160405180910390a360008060006101000a81548173ffffffffffffffffffffffffffffffffffffffff021916908373ffffffffffffffffffffffffffffffffffffffff160217905550565b60045481565b6000600160009054906101000a900473ffffffffffffffffffffffffffffffffffffffff16905090565b60008060009054906101000a900473ffffffffffffffffffffffffffffffffffffffff16905090565b610474610644565b73ffffffffffffffffffffffffffffffffffffffff1660008054906101000a900473ffffffffffffffffffffffffffffffffffffffff1673ffffffffffffffffffffffffffffffffffffffff1614610501576040517f08c379a00000000000000000000000000000000000000000000000000000000081526004016104f890610a62565b60405180910390fd5b80600160006101000a81548173ffffffffffffffffffffffffffffffffffffffff021916908373ffffffffffffffffffffffffffffffffffffffff16021790555050565b61054d610644565b73ffffffffffffffffffffffffffffffffffffffff1660008054906101000a900473ffffffffffffffffffffffffffffffffffffffff1673ffffffffffffffffffffffffffffffffffffffff16146105da576040517f08c379a00000000000000000000000000000000000000000000000000000000081526004016105d190610a62565b60405180910390fd5b6105e38161064c565b50565b60008082846105f59190610ab1565b90508381101561063a576040517f08c379a000000000000000000000000000000000000000000000000000000000815260040161063190610b53565b60405180910390fd5b8091505092915050565b600033905090565b600073ffffffffffffffffffffffffffffffffffffffff168173ffffffffffffffffffffffffffffffffffffffff1614156106bc576040517f08c379a00000000000000000000000000000000000000000000000000000000081526004016106b390610be5565b60405180910390fd5b8073ffffffffffffffffffffffffffffffffffffffff1660008054906101000a900473ffffffffffffffffffffffffffffffffffffffff1673ffffffffffffffffffffffffffffffffffffffff167f8be0079c531659141344cd1fd0a4f28419497f9722a3daafe3b4186f6b6457e060405160405180910390a3806000806101000a81548173ffffffffffffffffffffffffffffffffffffffff021916908373ffffffffffffffffffffffffffffffffffffffff16021790555050565b600080fd5b600073ffffffffffffffffffffffffffffffffffffffff82169050919050565b60006107a98261077e565b9050919050565b6107b98161079e565b81146107c457600080fd5b50565b6000813590506107d6816107b0565b92915050565b6000819050919050565b6107ef816107dc565b81146107fa57600080fd5b50565b60008135905061080c816107e6565b92915050565b6000806040838503121561082957610828610779565b5b6000610837858286016107c7565b9250506020610848858286016107fd565b9150509250929050565b60008115159050919050565b61086781610852565b82525050565b6000602082019050610882600083018461085e565b92915050565b610891816107dc565b82525050565b60006020820190506108ac6000830184610888565b92915050565b6108bb8161079e565b82525050565b60006020820190506108d660008301846108b2565b92915050565b6000602082840312156108f2576108f1610779565b5b6000610900848285016107c7565b91505092915050565b600060608201905061091e60008301866108b2565b61092b60208301856108b2565b6109386040830184610888565b949350505050565b61094981610852565b811461095457600080fd5b50565b60008151905061096681610940565b92915050565b60006020828403121561098257610981610779565b5b600061099084828501610957565b91505092915050565b600082825260208201905092915050565b7f72656365697665206661696c6564000000000000000000000000000000000000600082015250565b60006109e0600e83610999565b91506109eb826109aa565b602082019050919050565b60006020820190508181036000830152610a0f816109d3565b9050919050565b7f4f776e61626c653a2063616c6c6572206973206e6f7420746865206f776e6572600082015250565b6000610a4c602083610999565b9150610a5782610a16565b602082019050919050565b60006020820190508181036000830152610a7b81610a3f565b9050919050565b7f4e487b7100000000000000000000000000000000000000000000000000000000600052601160045260246000fd5b6000610abc826107dc565b9150610ac7836107dc565b9250827fffffffffffffffffffffffffffffffffffffffffffffffffffffffffffffffff03821115610afc57610afb610a82565b5b828201905092915050565b7f536166654d6174683a206164646974696f6e206f766572666c6f770000000000600082015250565b6000610b3d601b83610999565b9150610b4882610b07565b602082019050919050565b60006020820190508181036000830152610b6c81610b30565b9050919050565b7f4f776e61626c653a206e6577206f776e657220697320746865207a65726f206160008201527f6464726573730000000000000000000000000000000000000000000000000000602082015250565b6000610bcf602683610999565b9150610bda82610b73565b604082019050919050565b60006020820190508181036000830152610bfe81610bc2565b905091905056fea2646970667358221220a5be47efc5a91fee19061c1ab21eef6d868ed3cfe10cf4c22eaf2491fa7574b364736f6c634300080c0033",
  "linkReferences": {},
  "deployedLinkReferences": {}
}