{
  "_format": "hh-sol-artifact-1",
  "contractName": "OpenLibrary",
  "sourceName": "contracts/OpenLibrary.sol",
  "abi": [
    {
      "anonymous": false,
      "inputs": [
        {
          "indexed": true,
          "internalType": "address",
          "name": "previousOwner",
          "type": "address"
        },
        {
          "indexed": true,
          "internalType": "address",
          "name": "newOwner",
          "type": "address"
        }
      ],
      "name": "OwnershipTransferred",
      "type": "event"
    },
    {
      "inputs": [
        {
          "internalType": "string",
          "name": "name",
          "type": "string"
        },
        {
          "internalType": "string",
          "name": "desc",
          "type": "string"
        }
      ],
      "name": "CreateBook",
      "outputs": [
        {
          "internalType": "bool",
          "name": "",
          "type": "bool"
        }
      ],
      "stateMutability": "nonpayable",
      "type": "function"
    },
    {
      "inputs": [
        {
          "internalType": "uint256",
          "name": "bookSerialNumber",
          "type": "uint256"
        },
        {
          "internalType": "uint256",
          "name": "sectionNumber",
          "type": "uint256"
        }
      ],
      "name": "GetBookById",
      "outputs": [
        {
          "components": [
            {
              "internalType": "uint256",
              "name": "SerialNumber",
              "type": "uint256"
            },
            {
              "internalType": "string",
              "name": "ISBN",
              "type": "string"
            },
            {
              "internalType": "string",
              "name": "Name",
              "type": "string"
            },
            {
              "internalType": "string",
              "name": "Desc",
              "type": "string"
            },
            {
              "internalType": "address",
              "name": "Author",
              "type": "address"
            },
            {
              "internalType": "uint256",
              "name": "SectionCnt",
              "type": "uint256"
            }
          ],
          "internalType": "struct OpenLibrary.Book",
          "name": "",
          "type": "tuple"
        },
        {
          "components": [
            {
              "internalType": "uint256",
              "name": "SectionNumber",
              "type": "uint256"
            },
            {
              "internalType": "string",
              "name": "Name",
              "type": "string"
            },
            {
              "internalType": "string",
              "name": "Cid",
              "type": "string"
            },
            {
              "internalType": "uint256",
              "name": "Price",
              "type": "uint256"
            }
          ],
          "internalType": "struct OpenLibrary.Section",
          "name": "",
          "type": "tuple"
        }
      ],
      "stateMutability": "view",
      "type": "function"
    },
    {
      "inputs": [],
      "name": "owner",
      "outputs": [
        {
          "internalType": "address",
          "name": "",
          "type": "address"
        }
      ],
      "stateMutability": "view",
      "type": "function"
    },
    {
      "inputs": [],
      "name": "renounceOwnership",
      "outputs": [],
      "stateMutability": "nonpayable",
      "type": "function"
    },
    {
      "inputs": [
        {
          "internalType": "address",
          "name": "newOwner",
          "type": "address"
        }
      ],
      "name": "transferOwnership",
      "outputs": [],
      "stateMutability": "nonpayable",
      "type": "function"
    }
  ],
  "bytecode": "0x6080604052620f4240600355620f424060045534801561001e57600080fd5b50600061002f6100d260201b60201c565b9050806000806101000a81548173ffffffffffffffffffffffffffffffffffffffff021916908373ffffffffffffffffffffffffffffffffffffffff1602179055508073ffffffffffffffffffffffffffffffffffffffff16600073ffffffffffffffffffffffffffffffffffffffff167f8be0079c531659141344cd1fd0a4f28419497f9722a3daafe3b4186f6b6457e060405160405180910390a3506100da565b600033905090565b6111c8806100e96000396000f3fe608060405234801561001057600080fd5b50600436106100575760003560e01c8063715018a61461005c5780638da5cb5b14610066578063c2b7873414610084578063f2fde38b146100b5578063f4cacc5f146100d1575b600080fd5b610064610101565b005b61006e610254565b60405161007b9190610acd565b60405180910390f35b61009e60048036038101906100999190610b32565b61027d565b6040516100ac929190610d2a565b60405180910390f35b6100cf60048036038101906100ca9190610d8d565b610643565b005b6100eb60048036038101906100e69190610eef565b6106e4565b6040516100f89190610f82565b60405180910390f35b610109610840565b73ffffffffffffffffffffffffffffffffffffffff1660008054906101000a900473ffffffffffffffffffffffffffffffffffffffff1673ffffffffffffffffffffffffffffffffffffffff1614610196576040517f08c379a000000000000000000000000000000000000000000000000000000000815260040161018d90610ffa565b60405180910390fd5b600073ffffffffffffffffffffffffffffffffffffffff1660008054906101000a900473ffffffffffffffffffffffffffffffffffffffff1673ffffffffffffffffffffffffffffffffffffffff167f8be0079c531659141344cd1fd0a4f28419497f9722a3daafe3b4186f6b6457e060405160405180910390a360008060006101000a81548173ffffffffffffffffffffffffffffffffffffffff021916908373ffffffffffffffffffffffffffffffffffffffff160217905550565b60008060009054906101000a900473ffffffffffffffffffffffffffffffffffffffff16905090565b610285610975565b61028d6109c1565b60056000858152602001908152602001600020600260008681526020019081526020016000206000858152602001908152602001600020816040518060c0016040529081600082015481526020016001820180546102ea90611049565b80601f016020809104026020016040519081016040528092919081815260200182805461031690611049565b80156103635780601f1061033857610100808354040283529160200191610363565b820191906000526020600020905b81548152906001019060200180831161034657829003601f168201915b5050505050815260200160028201805461037c90611049565b80601f01602080910402602001604051908101604052809291908181526020018280546103a890611049565b80156103f55780601f106103ca576101008083540402835291602001916103f5565b820191906000526020600020905b8154815290600101906020018083116103d857829003601f168201915b5050505050815260200160038201805461040e90611049565b80601f016020809104026020016040519081016040528092919081815260200182805461043a90611049565b80156104875780601f1061045c57610100808354040283529160200191610487565b820191906000526020600020905b81548152906001019060200180831161046a57829003601f168201915b505050505081526020016004820160009054906101000a900473ffffffffffffffffffffffffffffffffffffffff1673ffffffffffffffffffffffffffffffffffffffff1673ffffffffffffffffffffffffffffffffffffffff1681526020016005820154815250509150806040518060800160405290816000820154815260200160018201805461051890611049565b80601f016020809104026020016040519081016040528092919081815260200182805461054490611049565b80156105915780601f1061056657610100808354040283529160200191610591565b820191906000526020600020905b81548152906001019060200180831161057457829003601f168201915b505050505081526020016002820180546105aa90611049565b80601f01602080910402602001604051908101604052809291908181526020018280546105d690611049565b80156106235780601f106105f857610100808354040283529160200191610623565b820191906000526020600020905b81548152906001019060200180831161060657829003601f168201915b505050505081526020016003820154815250509050915091509250929050565b61064b610840565b73ffffffffffffffffffffffffffffffffffffffff1660008054906101000a900473ffffffffffffffffffffffffffffffffffffffff1673ffffffffffffffffffffffffffffffffffffffff16146106d8576040517f08c379a00000000000000000000000000000000000000000000000000000000081526004016106cf90610ffa565b60405180910390fd5b6106e181610848565b50565b60006106ee610975565b33816080019073ffffffffffffffffffffffffffffffffffffffff16908173ffffffffffffffffffffffffffffffffffffffff168152505060035481600001818152505083816040018190525082816060018190525060008160a00181815250508060056000600354815260200190815260200160002060008201518160000155602082015181600101908051906020019061078b9291906109e9565b5060408201518160020190805190602001906107a89291906109e9565b5060608201518160030190805190602001906107c59291906109e9565b5060808201518160040160006101000a81548173ffffffffffffffffffffffffffffffffffffffff021916908373ffffffffffffffffffffffffffffffffffffffff16021790555060a082015181600501559050506004546003600082825461082e91906110aa565b92505081905550600191505092915050565b600033905090565b600073ffffffffffffffffffffffffffffffffffffffff168173ffffffffffffffffffffffffffffffffffffffff1614156108b8576040517f08c379a00000000000000000000000000000000000000000000000000000000081526004016108af90611172565b60405180910390fd5b8073ffffffffffffffffffffffffffffffffffffffff1660008054906101000a900473ffffffffffffffffffffffffffffffffffffffff1673ffffffffffffffffffffffffffffffffffffffff167f8be0079c531659141344cd1fd0a4f28419497f9722a3daafe3b4186f6b6457e060405160405180910390a3806000806101000a81548173ffffffffffffffffffffffffffffffffffffffff021916908373ffffffffffffffffffffffffffffffffffffffff16021790555050565b6040518060c0016040528060008152602001606081526020016060815260200160608152602001600073ffffffffffffffffffffffffffffffffffffffff168152602001600081525090565b6040518060800160405280600081526020016060815260200160608152602001600081525090565b8280546109f590611049565b90600052602060002090601f016020900481019282610a175760008555610a5e565b82601f10610a3057805160ff1916838001178555610a5e565b82800160010185558215610a5e579182015b82811115610a5d578251825591602001919060010190610a42565b5b509050610a6b9190610a6f565b5090565b5b80821115610a88576000816000905550600101610a70565b5090565b600073ffffffffffffffffffffffffffffffffffffffff82169050919050565b6000610ab782610a8c565b9050919050565b610ac781610aac565b82525050565b6000602082019050610ae26000830184610abe565b92915050565b6000604051905090565b600080fd5b600080fd5b6000819050919050565b610b0f81610afc565b8114610b1a57600080fd5b50565b600081359050610b2c81610b06565b92915050565b60008060408385031215610b4957610b48610af2565b5b6000610b5785828601610b1d565b9250506020610b6885828601610b1d565b9150509250929050565b610b7b81610afc565b82525050565b600081519050919050565b600082825260208201905092915050565b60005b83811015610bbb578082015181840152602081019050610ba0565b83811115610bca576000848401525b50505050565b6000601f19601f8301169050919050565b6000610bec82610b81565b610bf68185610b8c565b9350610c06818560208601610b9d565b610c0f81610bd0565b840191505092915050565b610c2381610aac565b82525050565b600060c083016000830151610c416000860182610b72565b5060208301518482036020860152610c598282610be1565b91505060408301518482036040860152610c738282610be1565b91505060608301518482036060860152610c8d8282610be1565b9150506080830151610ca26080860182610c1a565b5060a0830151610cb560a0860182610b72565b508091505092915050565b6000608083016000830151610cd86000860182610b72565b5060208301518482036020860152610cf08282610be1565b91505060408301518482036040860152610d0a8282610be1565b9150506060830151610d1f6060860182610b72565b508091505092915050565b60006040820190508181036000830152610d448185610c29565b90508181036020830152610d588184610cc0565b90509392505050565b610d6a81610aac565b8114610d7557600080fd5b50565b600081359050610d8781610d61565b92915050565b600060208284031215610da357610da2610af2565b5b6000610db184828501610d78565b91505092915050565b600080fd5b600080fd5b7f4e487b7100000000000000000000000000000000000000000000000000000000600052604160045260246000fd5b610dfc82610bd0565b810181811067ffffffffffffffff82111715610e1b57610e1a610dc4565b5b80604052505050565b6000610e2e610ae8565b9050610e3a8282610df3565b919050565b600067ffffffffffffffff821115610e5a57610e59610dc4565b5b610e6382610bd0565b9050602081019050919050565b82818337600083830152505050565b6000610e92610e8d84610e3f565b610e24565b905082815260208101848484011115610eae57610ead610dbf565b5b610eb9848285610e70565b509392505050565b600082601f830112610ed657610ed5610dba565b5b8135610ee6848260208601610e7f565b91505092915050565b60008060408385031215610f0657610f05610af2565b5b600083013567ffffffffffffffff811115610f2457610f23610af7565b5b610f3085828601610ec1565b925050602083013567ffffffffffffffff811115610f5157610f50610af7565b5b610f5d85828601610ec1565b9150509250929050565b60008115159050919050565b610f7c81610f67565b82525050565b6000602082019050610f976000830184610f73565b92915050565b600082825260208201905092915050565b7f4f776e61626c653a2063616c6c6572206973206e6f7420746865206f776e6572600082015250565b6000610fe4602083610f9d565b9150610fef82610fae565b602082019050919050565b6000602082019050818103600083015261101381610fd7565b9050919050565b7f4e487b7100000000000000000000000000000000000000000000000000000000600052602260045260246000fd5b6000600282049050600182168061106157607f821691505b602082108114156110755761107461101a565b5b50919050565b7f4e487b7100000000000000000000000000000000000000000000000000000000600052601160045260246000fd5b60006110b582610afc565b91506110c083610afc565b9250827fffffffffffffffffffffffffffffffffffffffffffffffffffffffffffffffff038211156110f5576110f461107b565b5b828201905092915050565b7f4f776e61626c653a206e6577206f776e657220697320746865207a65726f206160008201527f6464726573730000000000000000000000000000000000000000000000000000602082015250565b600061115c602683610f9d565b915061116782611100565b604082019050919050565b6000602082019050818103600083015261118b8161114f565b905091905056fea2646970667358221220ecca971c15d5982814d1ce5e07050635f853caaf83446fc31347aef6917ee79d64736f6c634300080c0033",
  "linkReferences": {},
  "deployedLinkReferences": {}
}