{
  "_format": "hh-sol-artifact-1",
  "contractName": "OpenLibrary",
  "sourceName": "contracts/OpenLibrary.sol",
  "abi": [
    {
      "anonymous": false,
      "inputs": [
        {
          "indexed": true,
          "internalType": "address",
          "name": "author",
          "type": "address"
        },
        {
          "indexed": true,
          "internalType": "uint256",
          "name": "bookSerialNumber",
          "type": "uint256"
        },
        {
          "indexed": true,
          "internalType": "uint256",
          "name": "sectionNumber",
          "type": "uint256"
        }
      ],
      "name": "AddSection",
      "type": "event"
    },
    {
      "anonymous": false,
      "inputs": [
        {
          "indexed": true,
          "internalType": "address",
          "name": "author",
          "type": "address"
        },
        {
          "indexed": true,
          "internalType": "uint256",
          "name": "bookSerialNumber",
          "type": "uint256"
        }
      ],
      "name": "CreateBook",
      "type": "event"
    },
    {
      "anonymous": false,
      "inputs": [
        {
          "indexed": true,
          "internalType": "address",
          "name": "previousOwner",
          "type": "address"
        },
        {
          "indexed": true,
          "internalType": "address",
          "name": "newOwner",
          "type": "address"
        }
      ],
      "name": "OwnershipTransferred",
      "type": "event"
    },
    {
      "inputs": [
        {
          "internalType": "uint256",
          "name": "bookSerialNumber",
          "type": "uint256"
        },
        {
          "internalType": "string",
          "name": "name",
          "type": "string"
        },
        {
          "internalType": "string",
          "name": "cid",
          "type": "string"
        },
        {
          "internalType": "uint256",
          "name": "price",
          "type": "uint256"
        }
      ],
      "name": "addSection",
      "outputs": [],
      "stateMutability": "nonpayable",
      "type": "function"
    },
    {
      "inputs": [
        {
          "internalType": "string",
          "name": "name",
          "type": "string"
        },
        {
          "internalType": "string",
          "name": "desc",
          "type": "string"
        }
      ],
      "name": "createBook",
      "outputs": [],
      "stateMutability": "nonpayable",
      "type": "function"
    },
    {
      "inputs": [],
      "name": "owner",
      "outputs": [
        {
          "internalType": "address",
          "name": "",
          "type": "address"
        }
      ],
      "stateMutability": "view",
      "type": "function"
    },
    {
      "inputs": [
        {
          "internalType": "uint256",
          "name": "bookSerialNumber",
          "type": "uint256"
        },
        {
          "internalType": "uint256",
          "name": "sectionNumber",
          "type": "uint256"
        }
      ],
      "name": "readSection",
      "outputs": [
        {
          "components": [
            {
              "internalType": "uint256",
              "name": "SerialNumber",
              "type": "uint256"
            },
            {
              "internalType": "string",
              "name": "ISBN",
              "type": "string"
            },
            {
              "internalType": "string",
              "name": "Name",
              "type": "string"
            },
            {
              "internalType": "string",
              "name": "Desc",
              "type": "string"
            },
            {
              "internalType": "address",
              "name": "Author",
              "type": "address"
            },
            {
              "internalType": "uint256",
              "name": "SectionCnt",
              "type": "uint256"
            },
            {
              "internalType": "uint256",
              "name": "ReaderCnt",
              "type": "uint256"
            }
          ],
          "internalType": "struct OpenLibrary.Book",
          "name": "",
          "type": "tuple"
        },
        {
          "components": [
            {
              "internalType": "uint256",
              "name": "SectionNumber",
              "type": "uint256"
            },
            {
              "internalType": "string",
              "name": "Name",
              "type": "string"
            },
            {
              "internalType": "string",
              "name": "Cid",
              "type": "string"
            },
            {
              "internalType": "uint256",
              "name": "Price",
              "type": "uint256"
            }
          ],
          "internalType": "struct OpenLibrary.Section",
          "name": "",
          "type": "tuple"
        }
      ],
      "stateMutability": "view",
      "type": "function"
    },
    {
      "inputs": [],
      "name": "renounceOwnership",
      "outputs": [],
      "stateMutability": "nonpayable",
      "type": "function"
    },
    {
      "inputs": [
        {
          "internalType": "uint256",
          "name": "sectionNumber",
          "type": "uint256"
        }
      ],
      "name": "sectionAllowance",
      "outputs": [
        {
          "internalType": "bool",
          "name": "",
          "type": "bool"
        }
      ],
      "stateMutability": "view",
      "type": "function"
    },
    {
      "inputs": [
        {
          "internalType": "address",
          "name": "cashier",
          "type": "address"
        }
      ],
      "name": "setCashierDesk",
      "outputs": [],
      "stateMutability": "nonpayable",
      "type": "function"
    },
    {
      "inputs": [
        {
          "internalType": "address",
          "name": "newOwner",
          "type": "address"
        }
      ],
      "name": "transferOwnership",
      "outputs": [],
      "stateMutability": "nonpayable",
      "type": "function"
    },
    {
      "inputs": [
        {
          "internalType": "uint256",
          "name": "bookSerialNumber",
          "type": "uint256"
        },
        {
          "internalType": "uint256",
          "name": "sectionNumber",
          "type": "uint256"
        }
      ],
      "name": "userBuySection",
      "outputs": [],
      "stateMutability": "nonpayable",
      "type": "function"
    }
  ],
  "bytecode": "0x6080604052620f4240600555620f424060065534801561001e57600080fd5b50600061002f6100d260201b60201c565b9050806000806101000a81548173ffffffffffffffffffffffffffffffffffffffff021916908373ffffffffffffffffffffffffffffffffffffffff1602179055508073ffffffffffffffffffffffffffffffffffffffff16600073ffffffffffffffffffffffffffffffffffffffff167f8be0079c531659141344cd1fd0a4f28419497f9722a3daafe3b4186f6b6457e060405160405180910390a3506100da565b600033905090565b611a8c806100e96000396000f3fe608060405234801561001057600080fd5b50600436106100935760003560e01c8063699df98a11610066578063699df98a1461011d578063715018a61461014d5780638da5cb5b14610157578063b162530b14610175578063f2fde38b1461019157610093565b80630155e02c1461009857806322a5476e146100b4578063430eba8d146100d05780636188f57814610101575b600080fd5b6100b260048036038101906100ad919061112c565b6101ad565b005b6100ce60048036038101906100c991906111ca565b610355565b005b6100ea60048036038101906100e5919061112c565b61042e565b6040516100f89291906113c2565b60405180910390f35b61011b6004803603810190610116919061152e565b6108a2565b005b610137600480360381019061013291906115a6565b610ab2565b60405161014491906115ee565b60405180910390f35b610155610b19565b005b61015f610c6c565b60405161016c9190611618565b60405180910390f35b61018f600480360381019061018a9190611633565b610c95565b005b6101ab60048036038101906101a691906111ca565b610dee565b005b600160009054906101000a900473ffffffffffffffffffffffffffffffffffffffff1673ffffffffffffffffffffffffffffffffffffffff16630db62ae46101f3610e8f565b600360008681526020019081526020016000206000858152602001908152602001600020600301546040518363ffffffff1660e01b81526004016102389291906116e1565b6020604051808303816000875af1158015610257573d6000803e3d6000fd5b505050506040513d601f19601f8201168201806040525081019061027b9190611736565b6102ba576040517f08c379a00000000000000000000000000000000000000000000000000000000081526004016102b1906117c0565b60405180910390fd5b60016002600083815260200190815260200160002060003373ffffffffffffffffffffffffffffffffffffffff1673ffffffffffffffffffffffffffffffffffffffff16815260200190815260200160002060006101000a81548160ff021916908315150217905550600160076000848152602001908152602001600020600601600082825461034a919061180f565b925050819055505050565b61035d610e8f565b73ffffffffffffffffffffffffffffffffffffffff1660008054906101000a900473ffffffffffffffffffffffffffffffffffffffff1673ffffffffffffffffffffffffffffffffffffffff16146103ea576040517f08c379a00000000000000000000000000000000000000000000000000000000081526004016103e1906118b1565b60405180910390fd5b80600160006101000a81548173ffffffffffffffffffffffffffffffffffffffff021916908373ffffffffffffffffffffffffffffffffffffffff16021790555050565b610436610fc4565b61043e611017565b600115156002600085815260200190815260200160002060003373ffffffffffffffffffffffffffffffffffffffff1673ffffffffffffffffffffffffffffffffffffffff16815260200190815260200160002060009054906101000a900460ff161515146104e2576040517f08c379a00000000000000000000000000000000000000000000000000000000081526004016104d990611943565b60405180910390fd5b60076000858152602001908152602001600020600360008681526020019081526020016000206000858152602001908152602001600020816040518060e00160405290816000820154815260200160018201805461053f90611992565b80601f016020809104026020016040519081016040528092919081815260200182805461056b90611992565b80156105b85780601f1061058d576101008083540402835291602001916105b8565b820191906000526020600020905b81548152906001019060200180831161059b57829003601f168201915b505050505081526020016002820180546105d190611992565b80601f01602080910402602001604051908101604052809291908181526020018280546105fd90611992565b801561064a5780601f1061061f5761010080835404028352916020019161064a565b820191906000526020600020905b81548152906001019060200180831161062d57829003601f168201915b5050505050815260200160038201805461066390611992565b80601f016020809104026020016040519081016040528092919081815260200182805461068f90611992565b80156106dc5780601f106106b1576101008083540402835291602001916106dc565b820191906000526020600020905b8154815290600101906020018083116106bf57829003601f168201915b505050505081526020016004820160009054906101000a900473ffffffffffffffffffffffffffffffffffffffff1673ffffffffffffffffffffffffffffffffffffffff1673ffffffffffffffffffffffffffffffffffffffff168152602001600582015481526020016006820154815250509150806040518060800160405290816000820154815260200160018201805461077790611992565b80601f01602080910402602001604051908101604052809291908181526020018280546107a390611992565b80156107f05780601f106107c5576101008083540402835291602001916107f0565b820191906000526020600020905b8154815290600101906020018083116107d357829003601f168201915b5050505050815260200160028201805461080990611992565b80601f016020809104026020016040519081016040528092919081815260200182805461083590611992565b80156108825780601f1061085757610100808354040283529160200191610882565b820191906000526020600020905b81548152906001019060200180831161086557829003601f168201915b505050505081526020016003820154815250509050915091509250929050565b6108aa610fc4565b33816080019073ffffffffffffffffffffffffffffffffffffffff16908173ffffffffffffffffffffffffffffffffffffffff168152505060055481600001818152505082816040018190525081816060018190525060008160a00181815250508060076000600554815260200190815260200160002060008201518160000155602082015181600101908051906020019061094792919061103f565b50604082015181600201908051906020019061096492919061103f565b50606082015181600301908051906020019061098192919061103f565b5060808201518160040160006101000a81548173ffffffffffffffffffffffffffffffffffffffff021916908373ffffffffffffffffffffffffffffffffffffffff16021790555060a0820151816005015560c08201518160060155905050600654600560008282546109f4919061180f565b92505081905550600460003373ffffffffffffffffffffffffffffffffffffffff1673ffffffffffffffffffffffffffffffffffffffff1681526020019081526020016000208160000151908060018154018082558091505060019003906000526020600020016000909190919091505580600001513373ffffffffffffffffffffffffffffffffffffffff167f3ef4954ac1b464266a67683b2466533b61bce7cdca55f20836c2e7d9f3b3eda260405160405180910390a3505050565b60006002600083815260200190815260200160002060003373ffffffffffffffffffffffffffffffffffffffff1673ffffffffffffffffffffffffffffffffffffffff16815260200190815260200160002060009054906101000a900460ff169050919050565b610b21610e8f565b73ffffffffffffffffffffffffffffffffffffffff1660008054906101000a900473ffffffffffffffffffffffffffffffffffffffff1673ffffffffffffffffffffffffffffffffffffffff1614610bae576040517f08c379a0000000000000000000000000000000000000000000000000000000008152600401610ba5906118b1565b60405180910390fd5b600073ffffffffffffffffffffffffffffffffffffffff1660008054906101000a900473ffffffffffffffffffffffffffffffffffffffff1673ffffffffffffffffffffffffffffffffffffffff167f8be0079c531659141344cd1fd0a4f28419497f9722a3daafe3b4186f6b6457e060405160405180910390a360008060006101000a81548173ffffffffffffffffffffffffffffffffffffffff021916908373ffffffffffffffffffffffffffffffffffffffff160217905550565b60008060009054906101000a900473ffffffffffffffffffffffffffffffffffffffff16905090565b610c9d611017565b8381602001819052508281604001819052508181606001818152505060006007600087815260200190815260200160002060050154905060018187610ce2919061180f565b610cec919061180f565b8260000181815250508160036000888152602001908152602001600020600084600001518152602001908152602001600020600082015181600001556020820151816001019080519060200190610d4492919061103f565b506040820151816002019080519060200190610d6192919061103f565b50606082015181600301559050506001600760008881526020019081526020016000206005016000828254610d96919061180f565b925050819055508160000151863373ffffffffffffffffffffffffffffffffffffffff167fc424a61bcd02ae4ab12ca517f10dd42adf343ca0555de9a7413016e60984373e60405160405180910390a4505050505050565b610df6610e8f565b73ffffffffffffffffffffffffffffffffffffffff1660008054906101000a900473ffffffffffffffffffffffffffffffffffffffff1673ffffffffffffffffffffffffffffffffffffffff1614610e83576040517f08c379a0000000000000000000000000000000000000000000000000000000008152600401610e7a906118b1565b60405180910390fd5b610e8c81610e97565b50565b600033905090565b600073ffffffffffffffffffffffffffffffffffffffff168173ffffffffffffffffffffffffffffffffffffffff161415610f07576040517f08c379a0000000000000000000000000000000000000000000000000000000008152600401610efe90611a36565b60405180910390fd5b8073ffffffffffffffffffffffffffffffffffffffff1660008054906101000a900473ffffffffffffffffffffffffffffffffffffffff1673ffffffffffffffffffffffffffffffffffffffff167f8be0079c531659141344cd1fd0a4f28419497f9722a3daafe3b4186f6b6457e060405160405180910390a3806000806101000a81548173ffffffffffffffffffffffffffffffffffffffff021916908373ffffffffffffffffffffffffffffffffffffffff16021790555050565b6040518060e0016040528060008152602001606081526020016060815260200160608152602001600073ffffffffffffffffffffffffffffffffffffffff16815260200160008152602001600081525090565b6040518060800160405280600081526020016060815260200160608152602001600081525090565b82805461104b90611992565b90600052602060002090601f01602090048101928261106d57600085556110b4565b82601f1061108657805160ff19168380011785556110b4565b828001600101855582156110b4579182015b828111156110b3578251825591602001919060010190611098565b5b5090506110c191906110c5565b5090565b5b808211156110de5760008160009055506001016110c6565b5090565b6000604051905090565b600080fd5b600080fd5b6000819050919050565b611109816110f6565b811461111457600080fd5b50565b60008135905061112681611100565b92915050565b60008060408385031215611143576111426110ec565b5b600061115185828601611117565b925050602061116285828601611117565b9150509250929050565b600073ffffffffffffffffffffffffffffffffffffffff82169050919050565b60006111978261116c565b9050919050565b6111a78161118c565b81146111b257600080fd5b50565b6000813590506111c48161119e565b92915050565b6000602082840312156111e0576111df6110ec565b5b60006111ee848285016111b5565b91505092915050565b611200816110f6565b82525050565b600081519050919050565b600082825260208201905092915050565b60005b83811015611240578082015181840152602081019050611225565b8381111561124f576000848401525b50505050565b6000601f19601f8301169050919050565b600061127182611206565b61127b8185611211565b935061128b818560208601611222565b61129481611255565b840191505092915050565b6112a88161118c565b82525050565b600060e0830160008301516112c660008601826111f7565b50602083015184820360208601526112de8282611266565b915050604083015184820360408601526112f88282611266565b915050606083015184820360608601526113128282611266565b9150506080830151611327608086018261129f565b5060a083015161133a60a08601826111f7565b5060c083015161134d60c08601826111f7565b508091505092915050565b600060808301600083015161137060008601826111f7565b50602083015184820360208601526113888282611266565b915050604083015184820360408601526113a28282611266565b91505060608301516113b760608601826111f7565b508091505092915050565b600060408201905081810360008301526113dc81856112ae565b905081810360208301526113f08184611358565b90509392505050565b600080fd5b600080fd5b7f4e487b7100000000000000000000000000000000000000000000000000000000600052604160045260246000fd5b61143b82611255565b810181811067ffffffffffffffff8211171561145a57611459611403565b5b80604052505050565b600061146d6110e2565b90506114798282611432565b919050565b600067ffffffffffffffff82111561149957611498611403565b5b6114a282611255565b9050602081019050919050565b82818337600083830152505050565b60006114d16114cc8461147e565b611463565b9050828152602081018484840111156114ed576114ec6113fe565b5b6114f88482856114af565b509392505050565b600082601f830112611515576115146113f9565b5b81356115258482602086016114be565b91505092915050565b60008060408385031215611545576115446110ec565b5b600083013567ffffffffffffffff811115611563576115626110f1565b5b61156f85828601611500565b925050602083013567ffffffffffffffff8111156115905761158f6110f1565b5b61159c85828601611500565b9150509250929050565b6000602082840312156115bc576115bb6110ec565b5b60006115ca84828501611117565b91505092915050565b60008115159050919050565b6115e8816115d3565b82525050565b600060208201905061160360008301846115df565b92915050565b6116128161118c565b82525050565b600060208201905061162d6000830184611609565b92915050565b6000806000806080858703121561164d5761164c6110ec565b5b600061165b87828801611117565b945050602085013567ffffffffffffffff81111561167c5761167b6110f1565b5b61168887828801611500565b935050604085013567ffffffffffffffff8111156116a9576116a86110f1565b5b6116b587828801611500565b92505060606116c687828801611117565b91505092959194509250565b6116db816110f6565b82525050565b60006040820190506116f66000830185611609565b61170360208301846116d2565b9392505050565b611713816115d3565b811461171e57600080fd5b50565b6000815190506117308161170a565b92915050565b60006020828403121561174c5761174b6110ec565b5b600061175a84828501611721565b91505092915050565b600082825260208201905092915050565b7f7061792073656374696f6e20666565206661696c65642e000000000000000000600082015250565b60006117aa601783611763565b91506117b582611774565b602082019050919050565b600060208201905081810360008301526117d98161179d565b9050919050565b7f4e487b7100000000000000000000000000000000000000000000000000000000600052601160045260246000fd5b600061181a826110f6565b9150611825836110f6565b9250827fffffffffffffffffffffffffffffffffffffffffffffffffffffffffffffffff0382111561185a576118596117e0565b5b828201905092915050565b7f4f776e61626c653a2063616c6c6572206973206e6f7420746865206f776e6572600082015250565b600061189b602083611763565b91506118a682611865565b602082019050919050565b600060208201905081810360008301526118ca8161188e565b9050919050565b7f736f7272792c20796f7520617265206e6f74206275792074686973207365637460008201527f696f6e0000000000000000000000000000000000000000000000000000000000602082015250565b600061192d602383611763565b9150611938826118d1565b604082019050919050565b6000602082019050818103600083015261195c81611920565b9050919050565b7f4e487b7100000000000000000000000000000000000000000000000000000000600052602260045260246000fd5b600060028204905060018216806119aa57607f821691505b602082108114156119be576119bd611963565b5b50919050565b7f4f776e61626c653a206e6577206f776e657220697320746865207a65726f206160008201527f6464726573730000000000000000000000000000000000000000000000000000602082015250565b6000611a20602683611763565b9150611a2b826119c4565b604082019050919050565b60006020820190508181036000830152611a4f81611a13565b905091905056fea2646970667358221220daedcee28166ace46392e636562b92a4055565e84130b5a89743976b8c4e692364736f6c634300080c0033",
  "linkReferences": {},
  "deployedLinkReferences": {}
}